{
  "_format": "hh-sol-artifact-1",
  "contractName": "SyntheticBitcoin",
  "sourceName": "contracts/SyntheticBitcoin.sol",
  "abi": [
    {
      "inputs": [],
      "stateMutability": "nonpayable",
      "type": "constructor"
    },
    {
      "inputs": [],
      "name": "InvalidShortString",
      "type": "error"
    },
    {
      "inputs": [
        {
          "internalType": "string",
          "name": "str",
          "type": "string"
        }
      ],
      "name": "StringTooLong",
      "type": "error"
    },
    {
      "inputs": [
        {
          "internalType": "address",
          "name": "baseToken",
          "type": "address"
        }
      ],
      "name": "UnknownBaseToken",
      "type": "error"
    },
    {
      "anonymous": false,
      "inputs": [
        {
          "indexed": true,
          "internalType": "address",
          "name": "owner",
          "type": "address"
        },
        {
          "indexed": true,
          "internalType": "address",
          "name": "spender",
          "type": "address"
        },
        {
          "indexed": false,
          "internalType": "uint256",
          "name": "value",
          "type": "uint256"
        }
      ],
      "name": "Approval",
      "type": "event"
    },
    {
      "anonymous": false,
      "inputs": [],
      "name": "EIP712DomainChanged",
      "type": "event"
    },
    {
      "anonymous": false,
      "inputs": [
        {
          "indexed": true,
          "internalType": "address",
          "name": "previousOwner",
          "type": "address"
        },
        {
          "indexed": true,
          "internalType": "address",
          "name": "newOwner",
          "type": "address"
        }
      ],
      "name": "OwnershipTransferred",
      "type": "event"
    },
    {
      "anonymous": false,
      "inputs": [
        {
          "indexed": true,
          "internalType": "address",
          "name": "from",
          "type": "address"
        },
        {
          "indexed": true,
          "internalType": "address",
          "name": "to",
          "type": "address"
        },
        {
          "indexed": false,
          "internalType": "uint256",
          "name": "value",
          "type": "uint256"
        }
      ],
      "name": "Transfer",
      "type": "event"
    },
    {
      "inputs": [],
      "name": "DOMAIN_SEPARATOR",
      "outputs": [
        {
          "internalType": "bytes32",
          "name": "",
          "type": "bytes32"
        }
      ],
      "stateMutability": "view",
      "type": "function"
    },
    {
      "inputs": [
        {
          "internalType": "address",
          "name": "baseToken",
          "type": "address"
        },
        {
          "components": [
            {
              "internalType": "uint64",
              "name": "numerator",
              "type": "uint64"
            },
            {
              "internalType": "uint64",
              "name": "denominator",
              "type": "uint64"
            }
          ],
          "internalType": "struct SyntheticBitcoin.ConversionCoeff",
          "name": "coeff",
          "type": "tuple"
        }
      ],
      "name": "allowOrChangeBaseToken",
      "outputs": [],
      "stateMutability": "nonpayable",
      "type": "function"
    },
    {
      "inputs": [
        {
          "internalType": "address",
          "name": "owner",
          "type": "address"
        },
        {
          "internalType": "address",
          "name": "spender",
          "type": "address"
        }
      ],
      "name": "allowance",
      "outputs": [
        {
          "internalType": "uint256",
          "name": "",
          "type": "uint256"
        }
      ],
      "stateMutability": "view",
      "type": "function"
    },
    {
      "inputs": [
        {
          "internalType": "address",
          "name": "spender",
          "type": "address"
        },
        {
          "internalType": "uint256",
          "name": "amount",
          "type": "uint256"
        }
      ],
      "name": "approve",
      "outputs": [
        {
          "internalType": "bool",
          "name": "",
          "type": "bool"
        }
      ],
      "stateMutability": "nonpayable",
      "type": "function"
    },
    {
      "inputs": [
        {
          "internalType": "address",
          "name": "account",
          "type": "address"
        }
      ],
      "name": "balanceOf",
      "outputs": [
        {
          "internalType": "uint256",
          "name": "",
          "type": "uint256"
        }
      ],
      "stateMutability": "view",
      "type": "function"
    },
    {
      "inputs": [
        {
          "internalType": "address",
          "name": "baseToken",
          "type": "address"
        },
        {
          "internalType": "address",
          "name": "to",
          "type": "address"
        },
        {
          "internalType": "uint256",
          "name": "value",
          "type": "uint256"
        }
      ],
      "name": "burnAndWithdrawal",
      "outputs": [],
      "stateMutability": "nonpayable",
      "type": "function"
    },
    {
      "inputs": [
        {
          "internalType": "address",
          "name": "baseToken",
          "type": "address"
        },
        {
          "internalType": "uint256",
          "name": "value",
          "type": "uint256"
        }
      ],
      "name": "burnAndWithdrawal",
      "outputs": [],
      "stateMutability": "nonpayable",
      "type": "function"
    },
    {
      "inputs": [],
      "name": "decimals",
      "outputs": [
        {
          "internalType": "uint8",
          "name": "",
          "type": "uint8"
        }
      ],
      "stateMutability": "pure",
      "type": "function"
    },
    {
      "inputs": [
        {
          "internalType": "address",
          "name": "spender",
          "type": "address"
        },
        {
          "internalType": "uint256",
          "name": "subtractedValue",
          "type": "uint256"
        }
      ],
      "name": "decreaseAllowance",
      "outputs": [
        {
          "internalType": "bool",
          "name": "",
          "type": "bool"
        }
      ],
      "stateMutability": "nonpayable",
      "type": "function"
    },
    {
      "inputs": [
        {
          "internalType": "address",
          "name": "baseToken",
          "type": "address"
        }
      ],
      "name": "denyBaseToken",
      "outputs": [],
      "stateMutability": "nonpayable",
      "type": "function"
    },
    {
      "inputs": [
        {
          "internalType": "address",
          "name": "baseToken",
          "type": "address"
        },
        {
          "internalType": "address",
          "name": "to",
          "type": "address"
        },
        {
          "internalType": "uint256",
          "name": "value",
          "type": "uint256"
        }
      ],
      "name": "depositAndMint",
      "outputs": [],
      "stateMutability": "nonpayable",
      "type": "function"
    },
    {
      "inputs": [
        {
          "internalType": "address",
          "name": "baseToken",
          "type": "address"
        },
        {
          "internalType": "uint256",
          "name": "value",
          "type": "uint256"
        }
      ],
      "name": "depositAndMint",
      "outputs": [],
      "stateMutability": "nonpayable",
      "type": "function"
    },
    {
      "inputs": [],
      "name": "eip712Domain",
      "outputs": [
        {
          "internalType": "bytes1",
          "name": "fields",
          "type": "bytes1"
        },
        {
          "internalType": "string",
          "name": "name",
          "type": "string"
        },
        {
          "internalType": "string",
          "name": "version",
          "type": "string"
        },
        {
          "internalType": "uint256",
          "name": "chainId",
          "type": "uint256"
        },
        {
          "internalType": "address",
          "name": "verifyingContract",
          "type": "address"
        },
        {
          "internalType": "bytes32",
          "name": "salt",
          "type": "bytes32"
        },
        {
          "internalType": "uint256[]",
          "name": "extensions",
          "type": "uint256[]"
        }
      ],
      "stateMutability": "view",
      "type": "function"
    },
    {
      "inputs": [
        {
          "internalType": "address",
          "name": "baseToken",
          "type": "address"
        }
      ],
      "name": "getBaseToken",
      "outputs": [
        {
          "components": [
            {
              "internalType": "uint64",
              "name": "numerator",
              "type": "uint64"
            },
            {
              "internalType": "uint64",
              "name": "denominator",
              "type": "uint64"
            }
          ],
          "internalType": "struct SyntheticBitcoin.ConversionCoeff",
          "name": "",
          "type": "tuple"
        }
      ],
      "stateMutability": "view",
      "type": "function"
    },
    {
      "inputs": [
        {
          "internalType": "address",
          "name": "spender",
          "type": "address"
        },
        {
          "internalType": "uint256",
          "name": "addedValue",
          "type": "uint256"
        }
      ],
      "name": "increaseAllowance",
      "outputs": [
        {
          "internalType": "bool",
          "name": "",
          "type": "bool"
        }
      ],
      "stateMutability": "nonpayable",
      "type": "function"
    },
    {
      "inputs": [],
      "name": "name",
      "outputs": [
        {
          "internalType": "string",
          "name": "",
          "type": "string"
        }
      ],
      "stateMutability": "view",
      "type": "function"
    },
    {
      "inputs": [
        {
          "internalType": "address",
          "name": "owner",
          "type": "address"
        }
      ],
      "name": "nonces",
      "outputs": [
        {
          "internalType": "uint256",
          "name": "",
          "type": "uint256"
        }
      ],
      "stateMutability": "view",
      "type": "function"
    },
    {
      "inputs": [],
      "name": "owner",
      "outputs": [
        {
          "internalType": "address",
          "name": "",
          "type": "address"
        }
      ],
      "stateMutability": "view",
      "type": "function"
    },
    {
      "inputs": [
        {
          "internalType": "address",
          "name": "owner",
          "type": "address"
        },
        {
          "internalType": "address",
          "name": "spender",
          "type": "address"
        },
        {
          "internalType": "uint256",
          "name": "value",
          "type": "uint256"
        },
        {
          "internalType": "uint256",
          "name": "deadline",
          "type": "uint256"
        },
        {
          "internalType": "uint8",
          "name": "v",
          "type": "uint8"
        },
        {
          "internalType": "bytes32",
          "name": "r",
          "type": "bytes32"
        },
        {
          "internalType": "bytes32",
          "name": "s",
          "type": "bytes32"
        }
      ],
      "name": "permit",
      "outputs": [],
      "stateMutability": "nonpayable",
      "type": "function"
    },
    {
      "inputs": [],
      "name": "renounceOwnership",
      "outputs": [],
      "stateMutability": "nonpayable",
      "type": "function"
    },
    {
      "inputs": [],
      "name": "symbol",
      "outputs": [
        {
          "internalType": "string",
          "name": "",
          "type": "string"
        }
      ],
      "stateMutability": "view",
      "type": "function"
    },
    {
      "inputs": [],
      "name": "totalSupply",
      "outputs": [
        {
          "internalType": "uint256",
          "name": "",
          "type": "uint256"
        }
      ],
      "stateMutability": "view",
      "type": "function"
    },
    {
      "inputs": [
        {
          "internalType": "address",
          "name": "to",
          "type": "address"
        },
        {
          "internalType": "uint256",
          "name": "amount",
          "type": "uint256"
        }
      ],
      "name": "transfer",
      "outputs": [
        {
          "internalType": "bool",
          "name": "",
          "type": "bool"
        }
      ],
      "stateMutability": "nonpayable",
      "type": "function"
    },
    {
      "inputs": [
        {
          "internalType": "address",
          "name": "from",
          "type": "address"
        },
        {
          "internalType": "address",
          "name": "to",
          "type": "address"
        },
        {
          "internalType": "uint256",
          "name": "amount",
          "type": "uint256"
        }
      ],
      "name": "transferFrom",
      "outputs": [
        {
          "internalType": "bool",
          "name": "",
          "type": "bool"
        }
      ],
      "stateMutability": "nonpayable",
      "type": "function"
    },
    {
      "inputs": [
        {
          "internalType": "address",
          "name": "newOwner",
          "type": "address"
        }
      ],
      "name": "transferOwnership",
      "outputs": [],
      "stateMutability": "nonpayable",
      "type": "function"
    }
  ],
  "bytecode": "0x610160604052348015610010575f80fd5b506040518060400160405280601081526020016f29bcb73a3432ba34b1a134ba31b7b4b760811b81525080604051806040016040528060018152602001603160f81b8152506040518060400160405280601081526020016f29bcb73a3432ba34b1a134ba31b7b4b760811b815250604051806040016040528060048152602001635342544360e01b81525081600390816100aa91906102db565b5060046100b782826102db565b506100c79150839050600561017a565b610120526100d681600661017a565b61014052815160208084019190912060e052815190820120610100524660a05261016260e05161010051604080517f8b73c3c69bb8fe3d512ecc4cf759cc79239f7b179b0ffacaa9a75d522b39400f60208201529081019290925260608201524660808201523060a08201525f9060c00160405160208183030381529060405280519060200120905090565b60805250503060c05250610175336101ac565b6103ed565b5f6020835110156101955761018e836101fd565b90506101a6565b816101a084826102db565b5060ff90505b92915050565b600980546001600160a01b038381166001600160a01b0319831681179093556040519116919082907f8be0079c531659141344cd1fd0a4f28419497f9722a3daafe3b4186f6b6457e0905f90a35050565b5f80829050601f81511115610230578260405163305a27a960e01b81526004016102279190610395565b60405180910390fd5b805161023b826103ca565b179392505050565b634e487b7160e01b5f52604160045260245ffd5b600181811c9082168061026b57607f821691505b60208210810361028957634e487b7160e01b5f52602260045260245ffd5b50919050565b601f8211156102d657805f5260205f20601f840160051c810160208510156102b45750805b601f840160051c820191505b818110156102d3575f81556001016102c0565b50505b505050565b81516001600160401b038111156102f4576102f4610243565b610308816103028454610257565b8461028f565b6020601f82116001811461033a575f83156103235750848201515b5f19600385901b1c1916600184901b1784556102d3565b5f84815260208120601f198516915b828110156103695787850151825560209485019460019092019101610349565b508482101561038657868401515f19600387901b60f8161c191681555b50505050600190811b01905550565b602081525f82518060208401528060208501604085015e5f604082850101526040601f19601f83011684010191505092915050565b80516020808301519190811015610289575f1960209190910360031b1b16919050565b60805160a05160c05160e051610100516101205161014051611fdb61043e5f395f61070201525f6106d701525f61101c01525f610ff401525f610f4f01525f610f7901525f610fa30152611fdb5ff3fe608060405234801561000f575f80fd5b506004361061019a575f3560e01c8063715018a6116100e8578063a9059cbb11610093578063d3148fb61161006e578063d3148fb614610371578063d505accf14610384578063dd62ed3e14610397578063f2fde38b146103cf575f80fd5b8063a9059cbb14610338578063ac6cd9c41461034b578063c3f0abe81461035e575f80fd5b80638da5cb5b116100c35780638da5cb5b1461030257806395d89b411461031d578063a457c2d714610325575f80fd5b8063715018a6146102cc5780637ecebe00146102d457806384b0196e146102e7575f80fd5b8063313ce5671161014857806346c6d2391161012357806346c6d2391461027e5780636b92f5211461029157806370a08231146102a4575f80fd5b8063313ce567146102545780633644e51514610263578063395093511461026b575f80fd5b806315fccd731161017857806315fccd731461021a57806318160ddd1461022f57806323b872dd14610241575f80fd5b806306fdde031461019e578063095ea7b3146101bc5780630c10fd0f146101df575b5f80fd5b6101a66103e2565b6040516101b39190611b91565b60405180910390f35b6101cf6101ca366004611bc5565b610472565b60405190151581526020016101b3565b6101f26101ed366004611bed565b61048b565b60408051825167ffffffffffffffff90811682526020938401511692810192909252016101b3565b61022d610228366004611c06565b61052d565b005b6002545b6040519081526020016101b3565b6101cf61024f366004611c06565b61053e565b604051600881526020016101b3565b610233610561565b6101cf610279366004611bc5565b61056f565b61022d61028c366004611bed565b6105ad565b61022d61029f366004611c57565b6105f3565b6102336102b2366004611bed565b6001600160a01b03165f9081526020819052604090205490565b61022d61069a565b6102336102e2366004611bed565b6106ad565b6102ef6106ca565b6040516101b39796959493929190611d19565b6009546040516001600160a01b0390911681526020016101b3565b6101a661076d565b6101cf610333366004611bc5565b61077c565b6101cf610346366004611bc5565b610825565b61022d610359366004611bc5565b610832565b61022d61036c366004611c06565b61083f565b61022d61037f366004611bc5565b61084b565b61022d610392366004611dcb565b610858565b6102336103a5366004611e38565b6001600160a01b039182165f90815260016020908152604080832093909416825291909152205490565b61022d6103dd366004611bed565b6109b9565b6060600380546103f190611e69565b80601f016020809104026020016040519081016040528092919081815260200182805461041d90611e69565b80156104685780601f1061043f57610100808354040283529160200191610468565b820191905f5260205f20905b81548152906001019060200180831161044b57829003601f168201915b5050505050905090565b5f3361047f818585610a49565b60019150505b92915050565b604080518082019091525f80825260208201526001600160a01b0382165f908152600a6020908152604080832081518083019092525467ffffffffffffffff8082168084526801000000000000000090920416928201929092529103610485576040517fcdd975060000000000000000000000000000000000000000000000000000000081526001600160a01b03841660048201526024015b60405180910390fd5b61053983338484610ba0565b505050565b5f3361054b858285610ca9565b610556858585610d58565b506001949350505050565b5f61056a610f43565b905090565b335f8181526001602090815260408083206001600160a01b038716845290915281205490919061047f90829086906105a8908790611ee1565b610a49565b6105b561106c565b6001600160a01b03165f908152600a6020526040902080547fffffffffffffffffffffffffffffffff00000000000000000000000000000000169055565b6105fb61106c565b6001815f015167ffffffffffffffff161015801561062857506001816020015167ffffffffffffffff1610155b610630575f80fd5b6001600160a01b039091165f908152600a6020908152604090912082518154929093015167ffffffffffffffff90811668010000000000000000027fffffffffffffffffffffffffffffffff00000000000000000000000000000000909316931692909217179055565b6106a261106c565b6106ab5f6110c6565b565b6001600160a01b0381165f90815260076020526040812054610485565b5f606080828080836106fd7f0000000000000000000000000000000000000000000000000000000000000000600561112f565b6107287f0000000000000000000000000000000000000000000000000000000000000000600661112f565b604080515f808252602082019092527f0f000000000000000000000000000000000000000000000000000000000000009b939a50919850469750309650945092509050565b6060600480546103f190611e69565b335f8181526001602090815260408083206001600160a01b0387168452909152812054909190838110156108185760405162461bcd60e51b815260206004820152602560248201527f45524332303a2064656372656173656420616c6c6f77616e63652062656c6f7760448201527f207a65726f0000000000000000000000000000000000000000000000000000006064820152608401610524565b6105568286868403610a49565b5f3361047f818585610d58565b3361053983828085610ba0565b610539833384846111d8565b33610539838280856111d8565b834211156108a85760405162461bcd60e51b815260206004820152601d60248201527f45524332305065726d69743a206578706972656420646561646c696e650000006044820152606401610524565b5f7f6e71edae12b1b97f4d1f60370fef10105fa2faae0126114a169c64845d6126c98888886108d68c6112b4565b6040805160208101969096526001600160a01b0394851690860152929091166060840152608083015260a082015260c0810186905260e0016040516020818303038152906040528051906020012090505f610930826112db565b90505f61093f82878787611322565b9050896001600160a01b0316816001600160a01b0316146109a25760405162461bcd60e51b815260206004820152601e60248201527f45524332305065726d69743a20696e76616c6964207369676e617475726500006044820152606401610524565b6109ad8a8a8a610a49565b50505050505050505050565b6109c161106c565b6001600160a01b038116610a3d5760405162461bcd60e51b815260206004820152602660248201527f4f776e61626c653a206e6577206f776e657220697320746865207a65726f206160448201527f64647265737300000000000000000000000000000000000000000000000000006064820152608401610524565b610a46816110c6565b50565b6001600160a01b038316610ac45760405162461bcd60e51b8152602060048201526024808201527f45524332303a20617070726f76652066726f6d20746865207a65726f2061646460448201527f72657373000000000000000000000000000000000000000000000000000000006064820152608401610524565b6001600160a01b038216610b405760405162461bcd60e51b815260206004820152602260248201527f45524332303a20617070726f766520746f20746865207a65726f20616464726560448201527f73730000000000000000000000000000000000000000000000000000000000006064820152608401610524565b6001600160a01b038381165f8181526001602090815260408083209487168084529482529182902085905590518481527f8c5be1e5ebec7d5bd14f71427d1e84f3dd0314c0f7b2291e5b200ac8c7c3b925910160405180910390a3505050565b6001600160a01b0384165f908152600a6020908152604080832081518083019092525467ffffffffffffffff8082168084526801000000000000000090920416928201929092529103610c2a576040517fcdd975060000000000000000000000000000000000000000000000000000000081526001600160a01b0386166004820152602401610524565b5f815f015167ffffffffffffffff16826020015167ffffffffffffffff1684610c539190611ef4565b610c5d9190611f0b565b9050836001600160a01b0316856001600160a01b031614610c8357610c83858585610d58565b610c8d848461134a565b610ca16001600160a01b03871685836114b1565b505050505050565b6001600160a01b038381165f908152600160209081526040808320938616835292905220547fffffffffffffffffffffffffffffffffffffffffffffffffffffffffffffffff8114610d525781811015610d455760405162461bcd60e51b815260206004820152601d60248201527f45524332303a20696e73756666696369656e7420616c6c6f77616e63650000006044820152606401610524565b610d528484848403610a49565b50505050565b6001600160a01b038316610dd45760405162461bcd60e51b815260206004820152602560248201527f45524332303a207472616e736665722066726f6d20746865207a65726f20616460448201527f64726573730000000000000000000000000000000000000000000000000000006064820152608401610524565b6001600160a01b038216610e505760405162461bcd60e51b815260206004820152602360248201527f45524332303a207472616e7366657220746f20746865207a65726f206164647260448201527f65737300000000000000000000000000000000000000000000000000000000006064820152608401610524565b6001600160a01b0383165f9081526020819052604090205481811015610ede5760405162461bcd60e51b815260206004820152602660248201527f45524332303a207472616e7366657220616d6f756e742065786365656473206260448201527f616c616e636500000000000000000000000000000000000000000000000000006064820152608401610524565b6001600160a01b038481165f81815260208181526040808320878703905593871680835291849020805487019055925185815290927fddf252ad1be2c89b69c2b068fc378daa952ba7f163c4a11628f55a4df523b3ef910160405180910390a3610d52565b5f306001600160a01b037f000000000000000000000000000000000000000000000000000000000000000016148015610f9b57507f000000000000000000000000000000000000000000000000000000000000000046145b15610fc557507f000000000000000000000000000000000000000000000000000000000000000090565b61056a604080517f8b73c3c69bb8fe3d512ecc4cf759cc79239f7b179b0ffacaa9a75d522b39400f60208201527f0000000000000000000000000000000000000000000000000000000000000000918101919091527f000000000000000000000000000000000000000000000000000000000000000060608201524660808201523060a08201525f9060c00160405160208183030381529060405280519060200120905090565b6009546001600160a01b031633146106ab5760405162461bcd60e51b815260206004820181905260248201527f4f776e61626c653a2063616c6c6572206973206e6f7420746865206f776e65726044820152606401610524565b600980546001600160a01b038381167fffffffffffffffffffffffff0000000000000000000000000000000000000000831681179093556040519116919082907f8be0079c531659141344cd1fd0a4f28419497f9722a3daafe3b4186f6b6457e0905f90a35050565b606060ff83146111495761114283611578565b9050610485565b81805461115590611e69565b80601f016020809104026020016040519081016040528092919081815260200182805461118190611e69565b80156111cc5780601f106111a3576101008083540402835291602001916111cc565b820191905f5260205f20905b8154815290600101906020018083116111af57829003601f168201915b50505050509050610485565b6001600160a01b0384165f908152600a6020908152604080832081518083019092525467ffffffffffffffff808216835268010000000000000000909104169181018290529103611260576040517fcdd975060000000000000000000000000000000000000000000000000000000081526001600160a01b0386166004820152602401610524565b5f816020015167ffffffffffffffff16825f015167ffffffffffffffff16846112899190611ef4565b6112939190611f0b565b90506112aa6001600160a01b0387168630866115b5565b610ca18482611606565b6001600160a01b0381165f9081526007602052604090208054600181018255905b50919050565b5f6104856112e7610f43565b836040517f19010000000000000000000000000000000000000000000000000000000000008152600281019290925260228201526042902090565b5f805f611331878787876116c3565b9150915061133e8161179e565b5090505b949350505050565b6001600160a01b0382166113c65760405162461bcd60e51b815260206004820152602160248201527f45524332303a206275726e2066726f6d20746865207a65726f2061646472657360448201527f73000000000000000000000000000000000000000000000000000000000000006064820152608401610524565b6001600160a01b0382165f90815260208190526040902054818110156114545760405162461bcd60e51b815260206004820152602260248201527f45524332303a206275726e20616d6f756e7420657863656564732062616c616e60448201527f63650000000000000000000000000000000000000000000000000000000000006064820152608401610524565b6001600160a01b0383165f818152602081815260408083208686039055600280548790039055518581529192917fddf252ad1be2c89b69c2b068fc378daa952ba7f163c4a11628f55a4df523b3ef910160405180910390a3505050565b6040516001600160a01b0383166024820152604481018290526105399084907fa9059cbb00000000000000000000000000000000000000000000000000000000906064015b604080517fffffffffffffffffffffffffffffffffffffffffffffffffffffffffffffffe08184030181529190526020810180517bffffffffffffffffffffffffffffffffffffffffffffffffffffffff167fffffffff0000000000000000000000000000000000000000000000000000000090931692909217909152611902565b60605f611584836119e8565b6040805160208082528183019092529192505f91906020820181803683375050509182525060208101929092525090565b6040516001600160a01b0380851660248301528316604482015260648101829052610d529085907f23b872dd00000000000000000000000000000000000000000000000000000000906084016114f6565b6001600160a01b03821661165c5760405162461bcd60e51b815260206004820152601f60248201527f45524332303a206d696e7420746f20746865207a65726f2061646472657373006044820152606401610524565b8060025f82825461166d9190611ee1565b90915550506001600160a01b0382165f81815260208181526040808320805486019055518481527fddf252ad1be2c89b69c2b068fc378daa952ba7f163c4a11628f55a4df523b3ef910160405180910390a35050565b5f807f7fffffffffffffffffffffffffffffff5d576e7357a4501ddfe92f46681b20a08311156116f857505f90506003611795565b604080515f8082526020820180845289905260ff881692820192909252606081018690526080810185905260019060a0016020604051602081039080840390855afa158015611749573d5f803e3d5ffd5b50506040517fffffffffffffffffffffffffffffffffffffffffffffffffffffffffffffffe001519150506001600160a01b03811661178f575f60019250925050611795565b91505f90505b94509492505050565b5f8160048111156117b1576117b1611f43565b036117b95750565b60018160048111156117cd576117cd611f43565b0361181a5760405162461bcd60e51b815260206004820152601860248201527f45434453413a20696e76616c6964207369676e617475726500000000000000006044820152606401610524565b600281600481111561182e5761182e611f43565b0361187b5760405162461bcd60e51b815260206004820152601f60248201527f45434453413a20696e76616c6964207369676e6174757265206c656e677468006044820152606401610524565b600381600481111561188f5761188f611f43565b03610a465760405162461bcd60e51b815260206004820152602260248201527f45434453413a20696e76616c6964207369676e6174757265202773272076616c60448201527f75650000000000000000000000000000000000000000000000000000000000006064820152608401610524565b5f611956826040518060400160405280602081526020017f5361666545524332303a206c6f772d6c6576656c2063616c6c206661696c6564815250856001600160a01b0316611a289092919063ffffffff16565b905080515f14806119765750808060200190518101906119769190611f70565b6105395760405162461bcd60e51b815260206004820152602a60248201527f5361666545524332303a204552433230206f7065726174696f6e20646964206e60448201527f6f742073756363656564000000000000000000000000000000000000000000006064820152608401610524565b5f60ff8216601f811115610485576040517fb3512b0c00000000000000000000000000000000000000000000000000000000815260040160405180910390fd5b606061134284845f85855f80866001600160a01b03168587604051611a4d9190611f8f565b5f6040518083038185875af1925050503d805f8114611a87576040519150601f19603f3d011682016040523d82523d5f602084013e611a8c565b606091505b5091509150611a9d87838387611aa8565b979650505050505050565b60608315611b165782515f03611b0f576001600160a01b0385163b611b0f5760405162461bcd60e51b815260206004820152601d60248201527f416464726573733a2063616c6c20746f206e6f6e2d636f6e74726163740000006044820152606401610524565b5081611342565b6113428383815115611b2b5781518083602001fd5b8060405162461bcd60e51b81526004016105249190611b91565b5f81518084528060208401602086015e5f6020828601015260207fffffffffffffffffffffffffffffffffffffffffffffffffffffffffffffffe0601f83011685010191505092915050565b602081525f611ba36020830184611b45565b9392505050565b80356001600160a01b0381168114611bc0575f80fd5b919050565b5f8060408385031215611bd6575f80fd5b611bdf83611baa565b946020939093013593505050565b5f60208284031215611bfd575f80fd5b611ba382611baa565b5f805f60608486031215611c18575f80fd5b611c2184611baa565b9250611c2f60208501611baa565b929592945050506040919091013590565b803567ffffffffffffffff81168114611bc0575f80fd5b5f808284036060811215611c69575f80fd5b611c7284611baa565b925060407fffffffffffffffffffffffffffffffffffffffffffffffffffffffffffffffe082011215611ca3575f80fd5b506040516040810181811067ffffffffffffffff82111715611cec577f4e487b71000000000000000000000000000000000000000000000000000000005f52604160045260245ffd5b604052611cfb60208501611c40565b8152611d0960408501611c40565b6020820152809150509250929050565b7fff000000000000000000000000000000000000000000000000000000000000008816815260e060208201525f611d5360e0830189611b45565b8281036040840152611d658189611b45565b606084018890526001600160a01b038716608085015260a0840186905283810360c0850152845180825260208087019350909101905f5b81811015611dba578351835260209384019390920191600101611d9c565b50909b9a5050505050505050505050565b5f805f805f805f60e0888a031215611de1575f80fd5b611dea88611baa565b9650611df860208901611baa565b95506040880135945060608801359350608088013560ff81168114611e1b575f80fd5b9699959850939692959460a0840135945060c09093013592915050565b5f8060408385031215611e49575f80fd5b611e5283611baa565b9150611e6060208401611baa565b90509250929050565b600181811c90821680611e7d57607f821691505b6020821081036112d5577f4e487b71000000000000000000000000000000000000000000000000000000005f52602260045260245ffd5b7f4e487b71000000000000000000000000000000000000000000000000000000005f52601160045260245ffd5b8082018082111561048557610485611eb4565b808202811582820484141761048557610485611eb4565b5f82611f3e577f4e487b71000000000000000000000000000000000000000000000000000000005f52601260045260245ffd5b500490565b7f4e487b71000000000000000000000000000000000000000000000000000000005f52602160045260245ffd5b5f60208284031215611f80575f80fd5b81518015158114611ba3575f80fd5b5f82518060208501845e5f92019182525091905056fea26469706673582212203abb6dbb871d09dc21f672562dcbeb3160e0defab978ae3263462192d6767e3264736f6c634300081a0033",
  "linkReferences": {},
  "deployedLinkReferences": {}
}